{
  "contractName": "Dex",
  "abi": [
    {
      "inputs": [],
      "payable": false,
      "stateMutability": "nonpayable",
      "type": "constructor"
    },
    {
      "anonymous": false,
      "inputs": [
        {
          "indexed": false,
          "internalType": "bytes32",
          "name": "orderHash",
          "type": "bytes32"
        }
      ],
      "name": "OrderCanceled",
      "type": "event"
    },
    {
      "anonymous": false,
      "inputs": [
        {
          "indexed": false,
          "internalType": "bytes32",
          "name": "orderHash",
          "type": "bytes32"
        },
        {
          "indexed": false,
          "internalType": "address",
          "name": "haveToken",
          "type": "address"
        },
        {
          "indexed": false,
          "internalType": "uint256",
          "name": "haveAmount",
          "type": "uint256"
        },
        {
          "indexed": false,
          "internalType": "address",
          "name": "wantToken",
          "type": "address"
        },
        {
          "indexed": false,
          "internalType": "uint256",
          "name": "wantAmount",
          "type": "uint256"
        },
        {
          "indexed": false,
          "internalType": "address",
          "name": "creator",
          "type": "address"
        },
        {
          "indexed": false,
          "internalType": "uint256",
          "name": "nonce",
          "type": "uint256"
        },
        {
          "indexed": false,
          "internalType": "uint256",
          "name": "expirationBlock",
          "type": "uint256"
        }
      ],
      "name": "OrderCreated",
      "type": "event"
    },
    {
      "anonymous": false,
      "inputs": [
        {
          "indexed": false,
          "internalType": "bytes32",
          "name": "orderHash",
          "type": "bytes32"
        },
        {
          "indexed": false,
          "internalType": "address",
          "name": "filler",
          "type": "address"
        },
        {
          "indexed": false,
          "internalType": "uint256",
          "name": "amount",
          "type": "uint256"
        }
      ],
      "name": "OrderFilled",
      "type": "event"
    },
    {
      "anonymous": false,
      "inputs": [
        {
          "indexed": true,
          "internalType": "address",
          "name": "previousOwner",
          "type": "address"
        },
        {
          "indexed": true,
          "internalType": "address",
          "name": "newOwner",
          "type": "address"
        }
      ],
      "name": "OwnershipTransferred",
      "type": "event"
    },
    {
      "anonymous": false,
      "inputs": [
        {
          "indexed": false,
          "internalType": "address",
          "name": "token",
          "type": "address"
        }
      ],
      "name": "TokenAdded",
      "type": "event"
    },
    {
      "anonymous": false,
      "inputs": [
        {
          "indexed": false,
          "internalType": "address",
          "name": "token",
          "type": "address"
        }
      ],
      "name": "TokenRemoved",
      "type": "event"
    },
    {
      "anonymous": false,
      "inputs": [
        {
          "indexed": false,
          "internalType": "address",
          "name": "depositer",
          "type": "address"
        },
        {
          "indexed": false,
          "internalType": "address",
          "name": "token",
          "type": "address"
        },
        {
          "indexed": false,
          "internalType": "uint256",
          "name": "amount",
          "type": "uint256"
        }
      ],
      "name": "TokensDeposited",
      "type": "event"
    },
    {
      "anonymous": false,
      "inputs": [
        {
          "indexed": false,
          "internalType": "address",
          "name": "withdrawer",
          "type": "address"
        },
        {
          "indexed": false,
          "internalType": "address",
          "name": "token",
          "type": "address"
        },
        {
          "indexed": false,
          "internalType": "uint256",
          "name": "amount",
          "type": "uint256"
        }
      ],
      "name": "TokensWithdrawed",
      "type": "event"
    },
    {
      "constant": true,
      "inputs": [],
      "name": "isOwner",
      "outputs": [
        {
          "internalType": "bool",
          "name": "",
          "type": "bool"
        }
      ],
      "payable": false,
      "stateMutability": "view",
      "type": "function"
    },
    {
      "constant": true,
      "inputs": [],
      "name": "owner",
      "outputs": [
        {
          "internalType": "address",
          "name": "",
          "type": "address"
        }
      ],
      "payable": false,
      "stateMutability": "view",
      "type": "function"
    },
    {
      "constant": false,
      "inputs": [],
      "name": "renounceOwnership",
      "outputs": [],
      "payable": false,
      "stateMutability": "nonpayable",
      "type": "function"
    },
    {
      "constant": false,
      "inputs": [
        {
          "internalType": "address",
          "name": "newOwner",
          "type": "address"
        }
      ],
      "name": "transferOwnership",
      "outputs": [],
      "payable": false,
      "stateMutability": "nonpayable",
      "type": "function"
    },
    {
      "constant": false,
      "inputs": [],
      "name": "deposit",
      "outputs": [],
      "payable": true,
      "stateMutability": "payable",
      "type": "function"
    },
    {
      "constant": false,
      "inputs": [
        {
          "internalType": "address",
          "name": "token",
          "type": "address"
        },
        {
          "internalType": "uint256",
          "name": "amount",
          "type": "uint256"
        }
      ],
      "name": "depositToken",
      "outputs": [],
      "payable": false,
      "stateMutability": "nonpayable",
      "type": "function"
    },
    {
      "constant": false,
      "inputs": [
        {
          "internalType": "uint256",
          "name": "amount",
          "type": "uint256"
        }
      ],
      "name": "withdraw",
      "outputs": [],
      "payable": false,
      "stateMutability": "nonpayable",
      "type": "function"
    },
    {
      "constant": false,
      "inputs": [
        {
          "internalType": "address",
          "name": "token",
          "type": "address"
        },
        {
          "internalType": "uint256",
          "name": "amount",
          "type": "uint256"
        }
      ],
      "name": "withdrawToken",
      "outputs": [],
      "payable": false,
      "stateMutability": "nonpayable",
      "type": "function"
    },
    {
      "constant": false,
      "inputs": [
        {
          "internalType": "address",
          "name": "token",
          "type": "address"
        }
      ],
      "name": "addToken",
      "outputs": [],
      "payable": false,
      "stateMutability": "nonpayable",
      "type": "function"
    },
    {
      "constant": false,
      "inputs": [
        {
          "internalType": "address",
          "name": "token",
          "type": "address"
        }
      ],
      "name": "removeToken",
      "outputs": [],
      "payable": false,
      "stateMutability": "nonpayable",
      "type": "function"
    },
    {
      "constant": false,
      "inputs": [
        {
          "internalType": "address",
          "name": "haveToken",
          "type": "address"
        },
        {
          "internalType": "uint256",
          "name": "haveAmount",
          "type": "uint256"
        },
        {
          "internalType": "address",
          "name": "wantToken",
          "type": "address"
        },
        {
          "internalType": "uint256",
          "name": "wantAmount",
          "type": "uint256"
        }
      ],
      "name": "createOrder",
      "outputs": [],
      "payable": true,
      "stateMutability": "payable",
      "type": "function"
    },
    {
      "constant": false,
      "inputs": [
        {
          "internalType": "bytes32",
          "name": "orderHash",
          "type": "bytes32"
        }
      ],
      "name": "cancelOrder",
      "outputs": [],
      "payable": false,
      "stateMutability": "nonpayable",
      "type": "function"
    },
    {
      "constant": false,
      "inputs": [
        {
          "internalType": "bytes32",
          "name": "orderHash",
          "type": "bytes32"
        },
        {
          "internalType": "uint256",
          "name": "amountToFill",
          "type": "uint256"
        }
      ],
      "name": "fillOrder",
      "outputs": [],
      "payable": true,
      "stateMutability": "payable",
      "type": "function"
    },
    {
      "constant": true,
      "inputs": [
        {
          "internalType": "address",
          "name": "token",
          "type": "address"
        }
      ],
      "name": "userBalanceForToken",
      "outputs": [
        {
          "components": [
            {
              "internalType": "uint256",
              "name": "available",
              "type": "uint256"
            },
            {
              "internalType": "uint256",
              "name": "locked",
              "type": "uint256"
            }
          ],
          "internalType": "struct Dex.Balance",
          "name": "",
          "type": "tuple"
        }
      ],
      "payable": false,
      "stateMutability": "view",
      "type": "function"
    },
    {
      "constant": true,
      "inputs": [
        {
          "internalType": "address",
          "name": "token",
          "type": "address"
        }
      ],
      "name": "isValidToken",
      "outputs": [
        {
          "internalType": "bool",
          "name": "",
          "type": "bool"
        }
      ],
      "payable": false,
      "stateMutability": "view",
      "type": "function"
    },
    {
      "constant": true,
      "inputs": [],
      "name": "getValidTokens",
      "outputs": [
        {
          "internalType": "address[]",
          "name": "",
          "type": "address[]"
        }
      ],
      "payable": false,
      "stateMutability": "view",
      "type": "function"
    },
    {
      "constant": true,
      "inputs": [
        {
          "internalType": "bytes32",
          "name": "orderHash",
          "type": "bytes32"
        }
      ],
      "name": "orderExists",
      "outputs": [
        {
          "internalType": "bool",
          "name": "",
          "type": "bool"
        }
      ],
      "payable": false,
      "stateMutability": "view",
      "type": "function"
    },
    {
      "constant": true,
      "inputs": [
        {
          "internalType": "bytes32",
          "name": "orderHash",
          "type": "bytes32"
        }
      ],
      "name": "orderIsCanceled",
      "outputs": [
        {
          "internalType": "bool",
          "name": "",
          "type": "bool"
        }
      ],
      "payable": false,
      "stateMutability": "view",
      "type": "function"
    },
    {
      "constant": true,
      "inputs": [
        {
          "internalType": "bytes32",
          "name": "orderHash",
          "type": "bytes32"
        }
      ],
      "name": "orderIsFilled",
      "outputs": [
        {
          "internalType": "bool",
          "name": "",
          "type": "bool"
        }
      ],
      "payable": false,
      "stateMutability": "view",
      "type": "function"
    },
    {
      "constant": true,
      "inputs": [
        {
          "internalType": "bytes32",
          "name": "orderHash",
          "type": "bytes32"
        }
      ],
      "name": "orderIsExpired",
      "outputs": [
        {
          "internalType": "bool",
          "name": "",
          "type": "bool"
        }
      ],
      "payable": false,
      "stateMutability": "view",
      "type": "function"
    },
    {
      "constant": true,
      "inputs": [
        {
          "internalType": "bytes32",
          "name": "orderHash",
          "type": "bytes32"
        }
      ],
      "name": "getOrderFill",
      "outputs": [
        {
          "internalType": "uint256",
          "name": "",
          "type": "uint256"
        }
      ],
      "payable": false,
      "stateMutability": "view",
      "type": "function"
    },
    {
      "constant": true,
      "inputs": [
        {
          "internalType": "bytes32",
          "name": "orderHash",
          "type": "bytes32"
        }
      ],
      "name": "getOrderInfo",
      "outputs": [
        {
          "components": [
            {
              "internalType": "bool",
              "name": "canceled",
              "type": "bool"
            },
            {
              "internalType": "address",
              "name": "haveToken",
              "type": "address"
            },
            {
              "internalType": "uint256",
              "name": "haveAmount",
              "type": "uint256"
            },
            {
              "internalType": "address",
              "name": "wantToken",
              "type": "address"
            },
            {
              "internalType": "uint256",
              "name": "wantAmount",
              "type": "uint256"
            },
            {
              "internalType": "address",
              "name": "creator",
              "type": "address"
            },
            {
              "internalType": "uint256",
              "name": "nonce",
              "type": "uint256"
            },
            {
              "internalType": "uint256",
              "name": "expirationBlock",
              "type": "uint256"
            },
            {
              "internalType": "uint256",
              "name": "filledAmount",
              "type": "uint256"
            }
          ],
          "internalType": "struct Dex.OrderInfo",
          "name": "",
          "type": "tuple"
        }
      ],
      "payable": false,
      "stateMutability": "view",
      "type": "function"
    }
  ],
  "bytecode": "0x60806040523480156200001157600080fd5b50600062000024620001c060201b60201c565b9050806000806101000a81548173ffffffffffffffffffffffffffffffffffffffff021916908373ffffffffffffffffffffffffffffffffffffffff1602179055508073ffffffffffffffffffffffffffffffffffffffff16600073ffffffffffffffffffffffffffffffffffffffff167f8be0079c531659141344cd1fd0a4f28419497f9722a3daafe3b4186f6b6457e060405160405180910390a35060018060008073ffffffffffffffffffffffffffffffffffffffff1673ffffffffffffffffffffffffffffffffffffffff16815260200190815260200160002060006101000a81548160ff0219169083151502179055506002600090806001815401808255809150509060018203906000526020600020016000909192909190916101000a81548173ffffffffffffffffffffffffffffffffffffffff021916908373ffffffffffffffffffffffffffffffffffffffff160217905550507f784c8f4dbf0ffedd6e72c76501c545a70f8b203b30a26ce542bf92ba87c248a46000604051620001b29190620001d9565b60405180910390a162000252565b600033905090565b620001d38162000216565b82525050565b6000602082019050620001f06000830184620001c8565b92915050565b600073ffffffffffffffffffffffffffffffffffffffff82169050919050565b600062000223826200022a565b9050919050565b600062000237826200023e565b9050919050565b60006200024b82620001f6565b9050919050565b6135ef80620002626000396000f3fe6080604052600436106101355760003560e01c806386895759116100ab578063c4efd36f1161006f578063c4efd36f1461043b578063d0e30db014610466578063d48bfca714610470578063dc28a98e14610499578063f2fde38b146104d6578063fc05ca31146104ff57610135565b806386895759146103425780638da5cb5b1461037f5780638f32d59b146103aa5780639e281a98146103d5578063c1876453146103fe57610135565b806356945e0b116100fd57806356945e0b146102225780635fa7b5841461025f578063715018a6146102885780637489ec231461029f578063768c6ec0146102c8578063789ac46f1461030557610135565b80631cea1be81461013a5780632a0d893f146101565780632cb77e9f146101935780632e1a7d4d146101d0578063338b5dea146101f9575b600080fd5b610154600480360361014f91908101906125dc565b61051b565b005b34801561016257600080fd5b5061017d600480360361017891908101906124c2565b6108eb565b60405161018a91906133a2565b60405180910390f35b34801561019f57600080fd5b506101ba60048036036101b591908101906125b3565b610923565b6040516101c79190612ff5565b60405180910390f35b3480156101dc57600080fd5b506101f760048036036101f29190810190612618565b610935565b005b34801561020557600080fd5b50610220600480360361021b91908101906124eb565b610a31565b005b34801561022e57600080fd5b50610249600480360361024491908101906125b3565b610c11565b6040516102569190612ff5565b60405180910390f35b34801561026b57600080fd5b50610286600480360361028191908101906124c2565b610c23565b005b34801561029457600080fd5b5061029d610d44565b005b3480156102ab57600080fd5b506102c660048036036102c191908101906125b3565b610e4a565b005b3480156102d457600080fd5b506102ef60048036036102ea91908101906125b3565b610ff4565b6040516102fc91906133bd565b60405180910390f35b34801561031157600080fd5b5061032c600480360361032791908101906125b3565b611167565b6040516103399190612ff5565b60405180910390f35b34801561034e57600080fd5b50610369600480360361036491908101906125b3565b611179565b6040516103769190612ff5565b60405180910390f35b34801561038b57600080fd5b5061039461118b565b6040516103a19190612f21565b60405180910390f35b3480156103b657600080fd5b506103bf6111b4565b6040516103cc9190612ff5565b60405180910390f35b3480156103e157600080fd5b506103fc60048036036103f791908101906124eb565b611212565b005b34801561040a57600080fd5b50610425600480360361042091908101906124c2565b611437565b6040516104329190612ff5565b60405180910390f35b34801561044757600080fd5b50610450611449565b60405161045d9190612fd3565b60405180910390f35b61046e6114d7565b005b34801561047c57600080fd5b50610497600480360361049291908101906124c2565b611544565b005b3480156104a557600080fd5b506104c060048036036104bb91908101906125b3565b611665565b6040516104cd91906133d9565b60405180910390f35b3480156104e257600080fd5b506104fd60048036036104f891908101906124c2565b611677565b005b61051960048036036105149190810190612527565b6116ca565b005b61052482611aea565b610563576040517f08c379a000000000000000000000000000000000000000000000000000000000815260040161055a90613322565b60405180910390fd5b61056c82611b0c565b156105ac576040517f08c379a00000000000000000000000000000000000000000000000000000000081526004016105a390613222565b60405180910390fd5b6105b582611b39565b156105f5576040517f08c379a00000000000000000000000000000000000000000000000000000000081526004016105ec906132c2565b60405180910390fd5b600061060083611b57565b905060008160070154905081600301548110610651576040517f08c379a0000000000000000000000000000000000000000000000000000000008152600401610648906131c2565b60405180910390fd5b600061066a828460030154611b7390919063ffffffff16565b9050808411156106af576040517f08c379a00000000000000000000000000000000000000000000000000000000081526004016106a690613302565b60405180910390fd5b6106dc8360020160009054906101000a900473ffffffffffffffffffffffffffffffffffffffff16611bbd565b6107245760003414610723576040517f08c379a000000000000000000000000000000000000000000000000000000000815260040161071a906131a2565b60405180910390fd5b5b60006107548460020160009054906101000a900473ffffffffffffffffffffffffffffffffffffffff1633611bf5565b905084816000015410156107e6576107a68460020160009054906101000a900473ffffffffffffffffffffffffffffffffffffffff166107a1836000015488611b7390919063ffffffff16565b611c7b565b6107e5576040517f08c379a00000000000000000000000000000000000000000000000000000000081526004016107dc906132a2565b60405180910390fd5b5b60008460030154610804878760010154611e9090919063ffffffff16565b8161080b57fe5b0490506108888560040160009054906101000a900473ffffffffffffffffffffffffffffffffffffffff168660000160019054906101000a900473ffffffffffffffffffffffffffffffffffffffff1683338960020160009054906101000a900473ffffffffffffffffffffffffffffffffffffffff168b611f00565b61089f868660070154611f2b90919063ffffffff16565b85600701819055507f091df57229697c69000d4036c8c123d47d4b61cbb946bdbeaa454f31a560a0448733886040516108da9392919061302b565b60405180910390a150505050505050565b6108f36123c4565b6108fd8233611bf5565b604051806040016040529081600082015481526020016001820154815250509050919050565b600061092e82611aea565b9050919050565b6000610942600033611bf5565b9050818160000154101561098b576040517f08c379a000000000000000000000000000000000000000000000000000000000815260040161098290613182565b60405180910390fd5b6109a2828260000154611b7390919063ffffffff16565b81600001819055503373ffffffffffffffffffffffffffffffffffffffff166108fc839081150290604051600060405180830381858888f193505050501580156109f0573d6000803e3d6000fd5b507f6058a317308647a6e192ebf93882a41e860abf2a8ee427437e8d50c0e3b1ef8833600084604051610a2593929190612f3c565b60405180910390a15050565b81610a3b81611bbd565b15610a7b576040517f08c379a0000000000000000000000000000000000000000000000000000000008152600401610a7290613382565b60405180910390fd5b82610a8581611f80565b80610a955750610a9481611bbd565b5b610ad4576040517f08c379a0000000000000000000000000000000000000000000000000000000008152600401610acb906132e2565b60405180910390fd5b8373ffffffffffffffffffffffffffffffffffffffff166323b872dd3330866040518463ffffffff1660e01b8152600401610b1193929190612f73565b602060405180830381600087803b158015610b2b57600080fd5b505af1158015610b3f573d6000803e3d6000fd5b505050506040513d601f19601f82011682018060405250610b63919081019061258a565b610ba2576040517f08c379a0000000000000000000000000000000000000000000000000000000008152600401610b9990613362565b60405180910390fd5b6000610bae8533611bf5565b9050610bc7848260000154611f2b90919063ffffffff16565b81600001819055507fcbc4a4091b012bb1329c38bbbb15455f5cac5aa3673da0a7f38cd61a4f495517338686604051610c0293929190612f73565b60405180910390a15050505050565b6000610c1c82611b39565b9050919050565b610c2b6111b4565b610c6a576040517f08c379a0000000000000000000000000000000000000000000000000000000008152600401610c6190613262565b60405180910390fd5b610c7381611f80565b610cb2576040517f08c379a0000000000000000000000000000000000000000000000000000000008152600401610ca990613122565b60405180910390fd5b6000600160008373ffffffffffffffffffffffffffffffffffffffff1673ffffffffffffffffffffffffffffffffffffffff16815260200190815260200160002060006101000a81548160ff0219169083151502179055507f4c910b69fe65a61f7531b9c5042b2329ca7179c77290aa7e2eb3afa3c8511fd381604051610d399190612f21565b60405180910390a150565b610d4c6111b4565b610d8b576040517f08c379a0000000000000000000000000000000000000000000000000000000008152600401610d8290613262565b60405180910390fd5b600073ffffffffffffffffffffffffffffffffffffffff166000809054906101000a900473ffffffffffffffffffffffffffffffffffffffff1673ffffffffffffffffffffffffffffffffffffffff167f8be0079c531659141344cd1fd0a4f28419497f9722a3daafe3b4186f6b6457e060405160405180910390a360008060006101000a81548173ffffffffffffffffffffffffffffffffffffffff021916908373ffffffffffffffffffffffffffffffffffffffff160217905550565b610e5381611aea565b610e92576040517f08c379a0000000000000000000000000000000000000000000000000000000008152600401610e8990613322565b60405180910390fd5b610e9b81611b0c565b15610edb576040517f08c379a0000000000000000000000000000000000000000000000000000000008152600401610ed290613282565b60405180910390fd5b610ee58133611fd6565b610f24576040517f08c379a0000000000000000000000000000000000000000000000000000000008152600401610f1b90613202565b60405180910390fd5b6000610f2f82611b57565b90506000610f3c83612045565b90506000610f57828460010154611b7390919063ffffffff16565b9050610f88338460000160019054906101000a900473ffffffffffffffffffffffffffffffffffffffff1683612065565b60016005600086815260200190815260200160002060000160006101000a81548160ff0219169083151502179055507f30ad15c39984aa59d60d4089cbbbaa503c4c9e0fa0e3bdf62a5bab180fcb974d84604051610fe69190613010565b60405180910390a150505050565b610ffc6123de565b61100582611b57565b604051806101200160405290816000820160009054906101000a900460ff161515151581526020016000820160019054906101000a900473ffffffffffffffffffffffffffffffffffffffff1673ffffffffffffffffffffffffffffffffffffffff1673ffffffffffffffffffffffffffffffffffffffff168152602001600182015481526020016002820160009054906101000a900473ffffffffffffffffffffffffffffffffffffffff1673ffffffffffffffffffffffffffffffffffffffff1673ffffffffffffffffffffffffffffffffffffffff168152602001600382015481526020016004820160009054906101000a900473ffffffffffffffffffffffffffffffffffffffff1673ffffffffffffffffffffffffffffffffffffffff1673ffffffffffffffffffffffffffffffffffffffff16815260200160058201548152602001600682015481526020016007820154815250509050919050565b600061117282611b0c565b9050919050565b6000611184826120b7565b9050919050565b60008060009054906101000a900473ffffffffffffffffffffffffffffffffffffffff16905090565b60008060009054906101000a900473ffffffffffffffffffffffffffffffffffffffff1673ffffffffffffffffffffffffffffffffffffffff166111f66120d8565b73ffffffffffffffffffffffffffffffffffffffff1614905090565b8161121c81611bbd565b1561125c576040517f08c379a000000000000000000000000000000000000000000000000000000000815260040161125390613382565b60405180910390fd5b8261126681611f80565b80611276575061127581611bbd565b5b6112b5576040517f08c379a00000000000000000000000000000000000000000000000000000000081526004016112ac906132e2565b60405180910390fd5b60006112c18533611bf5565b9050838160000154101561130a576040517f08c379a000000000000000000000000000000000000000000000000000000000815260040161130190613182565b60405180910390fd5b611321848260000154611b7390919063ffffffff16565b81600001819055508473ffffffffffffffffffffffffffffffffffffffff1663a9059cbb33866040518363ffffffff1660e01b8152600401611364929190612faa565b602060405180830381600087803b15801561137e57600080fd5b505af1158015611392573d6000803e3d6000fd5b505050506040513d601f19601f820116820180604052506113b6919081019061258a565b6113f5576040517f08c379a00000000000000000000000000000000000000000000000000000000081526004016113ec90613362565b60405180910390fd5b7f6058a317308647a6e192ebf93882a41e860abf2a8ee427437e8d50c0e3b1ef8833868660405161142893929190612f73565b60405180910390a15050505050565b600061144282611f80565b9050919050565b606060028054806020026020016040519081016040528092919081815260200182805480156114cd57602002820191906000526020600020905b8160009054906101000a900473ffffffffffffffffffffffffffffffffffffffff1673ffffffffffffffffffffffffffffffffffffffff1681526020019060010190808311611483575b5050505050905090565b60006114e4600033611bf5565b90506114fd348260000154611f2b90919063ffffffff16565b81600001819055507fcbc4a4091b012bb1329c38bbbb15455f5cac5aa3673da0a7f38cd61a4f4955173360003460405161153993929190612f3c565b60405180910390a150565b61154c6111b4565b61158b576040517f08c379a000000000000000000000000000000000000000000000000000000000815260040161158290613262565b60405180910390fd5b61159481611f80565b156115d4576040517f08c379a00000000000000000000000000000000000000000000000000000000081526004016115cb906131e2565b60405180910390fd5b60018060008373ffffffffffffffffffffffffffffffffffffffff1673ffffffffffffffffffffffffffffffffffffffff16815260200190815260200160002060006101000a81548160ff0219169083151502179055507f784c8f4dbf0ffedd6e72c76501c545a70f8b203b30a26ce542bf92ba87c248a48160405161165a9190612f21565b60405180910390a150565b600061167082612045565b9050919050565b61167f6111b4565b6116be576040517f08c379a00000000000000000000000000000000000000000000000000000000081526004016116b590613262565b60405180910390fd5b6116c7816120e0565b50565b836116d481611f80565b806116e457506116e381611bbd565b5b611723576040517f08c379a000000000000000000000000000000000000000000000000000000000815260040161171a906132e2565b60405180910390fd5b8261172d81611f80565b8061173d575061173c81611bbd565b5b61177c576040517f08c379a0000000000000000000000000000000000000000000000000000000008152600401611773906132e2565b60405180910390fd5b61178586611bbd565b6117cd57600034146117cc576040517f08c379a00000000000000000000000000000000000000000000000000000000081526004016117c3906131a2565b60405180910390fd5b5b60006117d98733611bf5565b905085816000015410156118475761180787611802836000015489611b7390919063ffffffff16565b611c7b565b611846576040517f08c379a000000000000000000000000000000000000000000000000000000000815260040161183d906132a2565b60405180910390fd5b5b600061186560016118573361220e565b611f2b90919063ffffffff16565b90506000611871612257565b905061187e338a8a612273565b81600460003373ffffffffffffffffffffffffffffffffffffffff1673ffffffffffffffffffffffffffffffffffffffff1681526020019081526020016000208190555060006118d38a8a8a8a3388886122c5565b90506040518061012001604052806000151581526020018b73ffffffffffffffffffffffffffffffffffffffff1681526020018a81526020018973ffffffffffffffffffffffffffffffffffffffff1681526020018881526020013373ffffffffffffffffffffffffffffffffffffffff16815260200184815260200183815260200160008152506005600083815260200190815260200160002060008201518160000160006101000a81548160ff02191690831515021790555060208201518160000160016101000a81548173ffffffffffffffffffffffffffffffffffffffff021916908373ffffffffffffffffffffffffffffffffffffffff1602179055506040820151816001015560608201518160020160006101000a81548173ffffffffffffffffffffffffffffffffffffffff021916908373ffffffffffffffffffffffffffffffffffffffff1602179055506080820151816003015560a08201518160040160006101000a81548173ffffffffffffffffffffffffffffffffffffffff021916908373ffffffffffffffffffffffffffffffffffffffff16021790555060c0820151816005015560e0820151816006015561010082015181600701559050507f50abfd3cc2c2e7d7af9e2b780f4156d5f519a679f64cc31dd81337faac8a7804818b8b8b8b338989604051611ad6989796959493929190613062565b60405180910390a150505050505050505050565b6000806005600084815260200190815260200160002060050154119050919050565b60006005600083815260200190815260200160002060000160009054906101000a900460ff169050919050565b600080611b4583611b57565b90504381600601541115915050919050565b6000600560008381526020019081526020016000209050919050565b6000611bb583836040518060400160405280601e81526020017f536166654d6174683a207375627472616374696f6e206f766572666c6f770000815250612307565b905092915050565b60008073ffffffffffffffffffffffffffffffffffffffff168273ffffffffffffffffffffffffffffffffffffffff16149050919050565b6000600360008473ffffffffffffffffffffffffffffffffffffffff1673ffffffffffffffffffffffffffffffffffffffff16815260200190815260200160002060008373ffffffffffffffffffffffffffffffffffffffff1673ffffffffffffffffffffffffffffffffffffffff168152602001908152602001600020905092915050565b6000611c8683611bbd565b15611d4e5781341015611cce576040517f08c379a0000000000000000000000000000000000000000000000000000000008152600401611cc590613342565b60405180910390fd5b6000611ce38334611b7390919063ffffffff16565b90506000811115611d48573373ffffffffffffffffffffffffffffffffffffffff166108fc611d1b8534611b7390919063ffffffff16565b9081150290604051600060405180830381858888f19350505050158015611d46573d6000803e3d6000fd5b505b50611e1d565b8273ffffffffffffffffffffffffffffffffffffffff166323b872dd3330856040518463ffffffff1660e01b8152600401611d8b93929190612f73565b602060405180830381600087803b158015611da557600080fd5b505af1158015611db9573d6000803e3d6000fd5b505050506040513d601f19601f82011682018060405250611ddd919081019061258a565b611e1c576040517f08c379a0000000000000000000000000000000000000000000000000000000008152600401611e1390613102565b60405180910390fd5b5b6000611e298433611bf5565b9050611e42838260000154611f2b90919063ffffffff16565b81600001819055507fcbc4a4091b012bb1329c38bbbb15455f5cac5aa3673da0a7f38cd61a4f495517338585604051611e7d93929190612f73565b60405180910390a1600191505092915050565b600080831415611ea35760009050611efa565b6000828402905082848281611eb457fe5b0414611ef5576040517f08c379a0000000000000000000000000000000000000000000000000000000008152600401611eec90613242565b60405180910390fd5b809150505b92915050565b611f0b868686612065565b611f1785878587612362565b611f2382848884612362565b505050505050565b600080828401905083811015611f76576040517f08c379a0000000000000000000000000000000000000000000000000000000008152600401611f6d90613162565b60405180910390fd5b8091505092915050565b6000600160008373ffffffffffffffffffffffffffffffffffffffff1673ffffffffffffffffffffffffffffffffffffffff16815260200190815260200160002060009054906101000a900460ff169050919050565b60008173ffffffffffffffffffffffffffffffffffffffff166005600085815260200190815260200160002060040160009054906101000a900473ffffffffffffffffffffffffffffffffffffffff1673ffffffffffffffffffffffffffffffffffffffff1614905092915050565b600060056000838152602001908152602001600020600701549050919050565b60006120718385611bf5565b905061208a828260010154611b7390919063ffffffff16565b81600101819055506120a9828260000154611f2b90919063ffffffff16565b816000018190555050505050565b6000806120c383611b57565b90508060030154816007015414915050919050565b600033905090565b600073ffffffffffffffffffffffffffffffffffffffff168173ffffffffffffffffffffffffffffffffffffffff161415612150576040517f08c379a000000000000000000000000000000000000000000000000000000000815260040161214790613142565b60405180910390fd5b8073ffffffffffffffffffffffffffffffffffffffff166000809054906101000a900473ffffffffffffffffffffffffffffffffffffffff1673ffffffffffffffffffffffffffffffffffffffff167f8be0079c531659141344cd1fd0a4f28419497f9722a3daafe3b4186f6b6457e060405160405180910390a3806000806101000a81548173ffffffffffffffffffffffffffffffffffffffff021916908373ffffffffffffffffffffffffffffffffffffffff16021790555050565b6000600460008373ffffffffffffffffffffffffffffffffffffffff1673ffffffffffffffffffffffffffffffffffffffff168152602001908152602001600020549050919050565b600061226e6101f443611f2b90919063ffffffff16565b905090565b600061227f8385611bf5565b9050612298828260000154611b7390919063ffffffff16565b81600001819055506122b7828260010154611f2b90919063ffffffff16565b816001018190555050505050565b6000878787878787876040516020016122e49796959493929190612ea0565b604051602081830303815290604052805190602001209050979650505050505050565b600083831115829061234f576040517f08c379a000000000000000000000000000000000000000000000000000000000815260040161234691906130e0565b60405180910390fd5b5060008385039050809150509392505050565b600061236e8585611bf5565b9050600061237c8685611bf5565b9050612395838360000154611b7390919063ffffffff16565b82600001819055506123b4838260000154611f2b90919063ffffffff16565b8160000181905550505050505050565b604051806040016040528060008152602001600081525090565b604051806101200160405280600015158152602001600073ffffffffffffffffffffffffffffffffffffffff16815260200160008152602001600073ffffffffffffffffffffffffffffffffffffffff16815260200160008152602001600073ffffffffffffffffffffffffffffffffffffffff1681526020016000815260200160008152602001600081525090565b60008135905061247d81613550565b92915050565b60008151905061249281613567565b92915050565b6000813590506124a78161357e565b92915050565b6000813590506124bc81613595565b92915050565b6000602082840312156124d457600080fd5b60006124e28482850161246e565b91505092915050565b600080604083850312156124fe57600080fd5b600061250c8582860161246e565b925050602061251d858286016124ad565b9150509250929050565b6000806000806080858703121561253d57600080fd5b600061254b8782880161246e565b945050602061255c878288016124ad565b935050604061256d8782880161246e565b925050606061257e878288016124ad565b91505092959194509250565b60006020828403121561259c57600080fd5b60006125aa84828501612483565b91505092915050565b6000602082840312156125c557600080fd5b60006125d384828501612498565b91505092915050565b600080604083850312156125ef57600080fd5b60006125fd85828601612498565b925050602061260e858286016124ad565b9150509250929050565b60006020828403121561262a57600080fd5b6000612638848285016124ad565b91505092915050565b600061264d8383612668565b60208301905092915050565b6126628161349b565b82525050565b61267181613449565b82525050565b61268081613449565b82525050565b61269761269282613449565b613504565b82525050565b60006126a882613404565b6126b28185613427565b93506126bd836133f4565b8060005b838110156126ee5781516126d58882612641565b97506126e08361341a565b9250506001810190506126c1565b5085935050505092915050565b6127048161345b565b82525050565b6127138161345b565b82525050565b61272281613467565b82525050565b60006127338261340f565b61273d8185613438565b935061274d8185602086016134d1565b61275681613532565b840191505092915050565b600061276e601583613438565b91507f4552433230207472616e73666572206661696c656400000000000000000000006000830152602082019050919050565b60006127ae602183613438565b91507f7468697320746f6b656e20686173206e6f74206265656e20616464656420796560008301527f74000000000000000000000000000000000000000000000000000000000000006020830152604082019050919050565b6000612814602683613438565b91507f4f776e61626c653a206e6577206f776e657220697320746865207a65726f206160008301527f64647265737300000000000000000000000000000000000000000000000000006020830152604082019050919050565b600061287a601b83613438565b91507f536166654d6174683a206164646974696f6e206f766572666c6f7700000000006000830152602082019050919050565b60006128ba601c83613438565b91507f6e6f7420656e6f7567682062616c616e636520617661696c61626c65000000006000830152602082019050919050565b60006128fa601a83613438565b91507f636f6e747261637420646f6573206e6f742074616b65204554480000000000006000830152602082019050919050565b600061293a602883613438565b91507f4f726465722068617320616c7265616479206265656e20636f6d706c6574656c60008301527f792066696c6c65640000000000000000000000000000000000000000000000006020830152604082019050919050565b60006129a0602183613438565b91507f7468697320746f6b656e2068617320616c7265616479206265656e206164646560008301527f64000000000000000000000000000000000000000000000000000000000000006020830152604082019050919050565b6000612a06601f83613438565b91507f73656e646572206973206e6f7420746865206f726465722063726561746f72006000830152602082019050919050565b6000612a46601183613438565b91507f4f726465722069732063616e63656c65640000000000000000000000000000006000830152602082019050919050565b6000612a86602183613438565b91507f536166654d6174683a206d756c7469706c69636174696f6e206f766572666c6f60008301527f77000000000000000000000000000000000000000000000000000000000000006020830152604082019050919050565b6000612aec602083613438565b91507f4f776e61626c653a2063616c6c6572206973206e6f7420746865206f776e65726000830152602082019050919050565b6000612b2c601f83613438565b91507f4f726465722068617320616c7265616479206265656e2063616e63656c6564006000830152602082019050919050565b6000612b6c601483613438565b91507f696e73756666696369656e742062616c616e63650000000000000000000000006000830152602082019050919050565b6000612bac601183613438565b91507f4f726465722068617320657870697265640000000000000000000000000000006000830152602082019050919050565b6000612bec601283613438565b91507f746f6b656e206973206e6f742076616c696400000000000000000000000000006000830152602082019050919050565b6000612c2c602683613438565b91507f4f726465722063616e6e6f742062652066696c6c656420666f7220746861742060008301527f616d6f756e7400000000000000000000000000000000000000000000000000006020830152604082019050919050565b6000612c92601483613438565b91507f4f7264657220646f6573206e6f742065786973740000000000000000000000006000830152602082019050919050565b6000612cd2601983613438565b91507f45746865723a204e6f7420656e6f7567682062616c616e6365000000000000006000830152602082019050919050565b6000612d12601683613438565b91507f45524332303a207472616e73666572206661696c6564000000000000000000006000830152602082019050919050565b6000612d52601f83613438565b91507f616464726573732063616e6e6f742062652074686520302061646472657373006000830152602082019050919050565b604082016000820151612d9b6000850182612e6b565b506020820151612dae6020850182612e6b565b50505050565b61012082016000820151612dcb60008501826126fb565b506020820151612dde6020850182612668565b506040820151612df16040850182612e6b565b506060820151612e046060850182612668565b506080820151612e176080850182612e6b565b5060a0820151612e2a60a0850182612668565b5060c0820151612e3d60c0850182612e6b565b5060e0820151612e5060e0850182612e6b565b50610100820151612e65610100850182612e6b565b50505050565b612e7481613491565b82525050565b612e8381613491565b82525050565b612e9a612e9582613491565b613528565b82525050565b6000612eac828a612686565b601482019150612ebc8289612e89565b602082019150612ecc8288612686565b601482019150612edc8287612e89565b602082019150612eec8286612686565b601482019150612efc8285612e89565b602082019150612f0c8284612e89565b60208201915081905098975050505050505050565b6000602082019050612f366000830184612677565b92915050565b6000606082019050612f516000830186612659565b612f5e6020830185612659565b612f6b6040830184612e7a565b949350505050565b6000606082019050612f886000830186612659565b612f956020830185612677565b612fa26040830184612e7a565b949350505050565b6000604082019050612fbf6000830185612659565b612fcc6020830184612e7a565b9392505050565b60006020820190508181036000830152612fed818461269d565b905092915050565b600060208201905061300a600083018461270a565b92915050565b60006020820190506130256000830184612719565b92915050565b60006060820190506130406000830186612719565b61304d6020830185612659565b61305a6040830184612e7a565b949350505050565b600061010082019050613078600083018b612719565b613085602083018a612677565b6130926040830189612e7a565b61309f6060830188612677565b6130ac6080830187612e7a565b6130b960a0830186612659565b6130c660c0830185612e7a565b6130d360e0830184612e7a565b9998505050505050505050565b600060208201905081810360008301526130fa8184612728565b905092915050565b6000602082019050818103600083015261311b81612761565b9050919050565b6000602082019050818103600083015261313b816127a1565b9050919050565b6000602082019050818103600083015261315b81612807565b9050919050565b6000602082019050818103600083015261317b8161286d565b9050919050565b6000602082019050818103600083015261319b816128ad565b9050919050565b600060208201905081810360008301526131bb816128ed565b9050919050565b600060208201905081810360008301526131db8161292d565b9050919050565b600060208201905081810360008301526131fb81612993565b9050919050565b6000602082019050818103600083015261321b816129f9565b9050919050565b6000602082019050818103600083015261323b81612a39565b9050919050565b6000602082019050818103600083015261325b81612a79565b9050919050565b6000602082019050818103600083015261327b81612adf565b9050919050565b6000602082019050818103600083015261329b81612b1f565b9050919050565b600060208201905081810360008301526132bb81612b5f565b9050919050565b600060208201905081810360008301526132db81612b9f565b9050919050565b600060208201905081810360008301526132fb81612bdf565b9050919050565b6000602082019050818103600083015261331b81612c1f565b9050919050565b6000602082019050818103600083015261333b81612c85565b9050919050565b6000602082019050818103600083015261335b81612cc5565b9050919050565b6000602082019050818103600083015261337b81612d05565b9050919050565b6000602082019050818103600083015261339b81612d45565b9050919050565b60006040820190506133b76000830184612d85565b92915050565b6000610120820190506133d36000830184612db4565b92915050565b60006020820190506133ee6000830184612e7a565b92915050565b6000819050602082019050919050565b600081519050919050565b600081519050919050565b6000602082019050919050565b600082825260208201905092915050565b600082825260208201905092915050565b600061345482613471565b9050919050565b60008115159050919050565b6000819050919050565b600073ffffffffffffffffffffffffffffffffffffffff82169050919050565b6000819050919050565b60006134a6826134ad565b9050919050565b60006134b8826134bf565b9050919050565b60006134ca82613471565b9050919050565b60005b838110156134ef5780820151818401526020810190506134d4565b838111156134fe576000848401525b50505050565b600061350f82613516565b9050919050565b600061352182613543565b9050919050565b6000819050919050565b6000601f19601f8301169050919050565b60008160601b9050919050565b61355981613449565b811461356457600080fd5b50565b6135708161345b565b811461357b57600080fd5b50565b61358781613467565b811461359257600080fd5b50565b61359e81613491565b81146135a957600080fd5b5056fea365627a7a72315820f3aae6e5dd86c628b67684a0980fc77033e38a0256cca7e66383991a716d0dcb6c6578706572696d656e74616cf564736f6c63430005110040",
  "source": "pragma solidity ^0.5.0;\n\n// solhint-disable-next-line var-name-mixedcase\npragma experimental ABIEncoderV2;\n\nimport \"@openzeppelin/contracts/token/ERC20/IERC20.sol\";\nimport \"@openzeppelin/contracts/ownership/Ownable.sol\";\nimport \"@openzeppelin/contracts/math/SafeMath.sol\";\n\ncontract Dex is Ownable {\n    using SafeMath for uint256;\n\n    struct Balance {\n        uint256 available;\n        uint256 locked;\n    }\n\n    struct OrderInfo {\n        bool canceled;\n        address haveToken;\n        uint256 haveAmount;\n        address wantToken;\n        uint256 wantAmount;\n        address creator;\n        uint256 nonce;\n        uint256 expirationBlock;\n        uint256 filledAmount;\n    }\n\n    /**\n    * all orders expire after 500 blocks from the moment they were created\n    */\n    uint256 private constant EXPIRATION_BLOCKS = 500;\n\n    /** \n    * mapping of tokens accepted by the contract\n    * address(0) represents ETH and is supported by default.\n    */ \n    mapping(address => bool) private _validTokens;\n\n    /**\n    * convenience array for valid tokens\n    */ \n    address[] private _validTokensArray;\n\n    /**\n    * Mapping of tokens to user balances\n    */\n    mapping(address => mapping(address => Balance)) private _userBalanceForToken;   \n\n    /**\n    * mapping of users to their nonces\n    */\n    mapping(address => uint256) private _userNonce;\n\n    /**\n    * mapping of order hashes to order information\n    */\n    mapping(bytes32 => OrderInfo) private _orders;\n\n    constructor () public {\n        // address(0) represents Ether.\n        _validTokens[address(0)] = true;\n        _validTokensArray.push(address(0));\n        \n        emit TokenAdded(address(0));\n    }\n\n    /**\n    * @notice external function that allows a user to deposit ETH into the contract.\n    * it emits a `TokenDeposited` event with address(0) representing ETH\n    */\n    function deposit() external payable {\n        Balance storage balance = _userBalanceOf(address(0), msg.sender);\n        balance.available = (balance.available).add(msg.value);\n\n        emit TokensDeposited(msg.sender, address(0), msg.value);\n    }\n\n    /**\n    * @notice function that allows a user to deposit tokens into the contract.\n    * it emits a `TokenDeposited`\n    * @param token the address of a ERC20 token.\n    * @param amount amount to be deposited\n    */\n    function depositToken(\n        address token, \n        uint256 amount\n    ) external onlyTokens(token) onlyValidTokens(token) {\n        require(\n            IERC20(token).transferFrom(msg.sender, address(this), amount),\n            \"ERC20: transfer failed\"\n        );\n\n        Balance storage balance = _userBalanceOf(token, msg.sender);\n        balance.available = (balance.available).add(amount);\n\n        emit TokensDeposited(msg.sender, token, amount);\n    }\n\n    /**\n    * @notice function that allows a user to withdraw ETH from the contract.\n    * it emits a `TokenWithdrawed` event with address(0) representing ETH\n    * @param amount of ETH to withdraw\n    */\n    function withdraw(uint256 amount) external {\n        Balance storage balance = _userBalanceOf(address(0), msg.sender);\n        require(balance.available >= amount, \"not enough balance available\");\n        balance.available = (balance.available).sub(amount);\n\n        msg.sender.transfer(amount);\n\n        emit TokensWithdrawed(msg.sender, address(0), amount);        \n    }\n\n    /**\n    * @notice function that allows a user to withdraw tokens from the contract.\n    * it emits a `LogWithdrawToken`\n    * @param token the address of a ERC20 token.\n    * @param amount amount to withdraw\n    */\n    function withdrawToken(\n        address token, \n        uint256 amount\n    ) external onlyTokens(token) onlyValidTokens(token) {\n        Balance storage balance = _userBalanceOf(token, msg.sender);\n        require(balance.available >= amount, \"not enough balance available\");\n        balance.available = (balance.available).sub(amount);\n\n        require(\n            IERC20(token).transfer(msg.sender, amount), \n            \"ERC20: transfer failed\"\n        );\n\n        emit TokensWithdrawed(msg.sender, token, amount);        \n    }\n\n    /**\n    *\n    */\n    function addToken(address token) external onlyOwner {\n        require(!_isValidToken(token), \"this token has already been added\");\n        _validTokens[token] = true;\n        emit TokenAdded(token);\n    }\n\n    /**\n    *\n    */\n    function removeToken(address token) external onlyOwner {\n        require(_isValidToken(token), \"this token has not been added yet\");\n        _validTokens[token] = false;\n        emit TokenRemoved(token);\n    }\n\n    /**\n    */\n    function createOrder(\n        address haveToken,\n        uint256 haveAmount,\n        address wantToken,\n        uint256 wantAmount\n    ) external payable onlyValidTokens(haveToken) onlyValidTokens(wantToken) {\n        if (!_isEther(haveToken)) {\n            require(msg.value == 0, \"contract does not take ETH\");\n        }\n\n        Balance storage balance = _userBalanceOf(haveToken, msg.sender);\n\n        // If sender does not have enough escrowed balance\n        if (balance.available < haveAmount) {\n            // check if we can get balance from somewhere else\n            require(\n                _checkBank(haveToken, haveAmount.sub(balance.available)),\n                \"insufficient balance\"\n            );\n        }\n\n        // get nonce\n        uint256 nonce = _getNonce(msg.sender).add(1);\n\n        // calculate expirationBlock\n        uint256 expirationBlock = _calculateExpiration();\n\n        // lock assets\n        _lockTokens(msg.sender, haveToken, haveAmount);\n\n        // update nonce\n        _userNonce[msg.sender] = nonce;\n\n        // hash order\n        bytes32 orderHash = _hashOrder(\n            haveToken,\n            haveAmount,\n            wantToken,\n            wantAmount,\n            msg.sender,\n            nonce,\n            expirationBlock\n        );\n\n        // record order info\n        _orders[orderHash] = OrderInfo({\n            canceled : false,\n            haveToken : haveToken,\n            haveAmount : haveAmount,\n            wantToken : wantToken,\n            wantAmount : wantAmount,\n            creator : msg.sender,\n            nonce : nonce,\n            expirationBlock : expirationBlock,\n            filledAmount : 0\n        });\n\n        // emit event\n        emit OrderCreated(\n            orderHash,\n            haveToken, \n            haveAmount, \n            wantToken, \n            wantAmount, \n            msg.sender, \n            nonce, \n            expirationBlock\n        );\n    }\n\n    /**\n    */\n    function cancelOrder(bytes32 orderHash) external {\n        // check if order exists\n        require(_orderExists(orderHash), \"Order does not exist\");\n\n        // check if order has already been canceled\n        require(!_orderIsCanceled(orderHash), \"Order has already been canceled\");\n\n        // check that msg.sender is the creator of the order\n        require(_isOrderCreator(orderHash, msg.sender), \"sender is not the order creator\");\n\n        // get order info\n        OrderInfo storage orderInfo = _getOrderInfo(orderHash);\n\n        // get filled amount\n        uint256 orderFill = _getOrderFill(orderHash);\n\n        // calculate amount to unlock\n        uint256 amountToUnlock = (orderInfo.haveAmount).sub(orderFill);\n\n        // unlock tokens\n        _unlockTokens(msg.sender, orderInfo.haveToken, amountToUnlock);\n\n        // cancel the order\n        _orders[orderHash].canceled = true;\n\n        // emit event\n        emit OrderCanceled(orderHash);\n    }\n\n    /**\n    */\n    function fillOrder(bytes32 orderHash, uint256 amountToFill) external payable {\n        // check if order exists\n        require(_orderExists(orderHash), \"Order does not exist\");\n\n        // check if order has already been canceled\n        require(!_orderIsCanceled(orderHash), \"Order is canceled\");\n\n        // check if order has expired\n        require(!_orderIsExpired(orderHash), \"Order has expired\");\n\n        // get order info\n        OrderInfo storage orderInfo = _getOrderInfo(orderHash);\n\n        // order filled amount\n        uint256 filledAmount = orderInfo.filledAmount;\n\n        // check if order has already been completely filled\n        require(filledAmount < orderInfo.wantAmount, \"Order has already been completely filled\");\n\n        // check if order can be filled for that amount\n        uint256 fillableAmount = (orderInfo.wantAmount).sub(filledAmount);\n        require(amountToFill <= fillableAmount, \"Order cannot be filled for that amount\");\n\n        // do not send ETH if wantToken is not ETH\n        if (!_isEther(orderInfo.wantToken)) {\n            require(msg.value == 0, \"contract does not take ETH\");\n        }\n\n        // get sender escrowed balance\n        Balance storage fillerBalance = _userBalanceOf(orderInfo.wantToken, msg.sender);\n\n        // If sender does not have enough escrowed balance\n        if (fillerBalance.available < amountToFill) {\n            // check if we can get balance from somewhere else\n            require(\n                _checkBank(orderInfo.wantToken, amountToFill.sub(fillerBalance.available)),\n                \"insufficient balance\"\n            );\n        }\n\n        // calculate amount to trade\n        uint256 amountTake = (orderInfo.haveAmount).mul(amountToFill) / orderInfo.wantAmount;\n        \n        // exchange tokens\n        _trade(\n            orderInfo.creator, \n            orderInfo.haveToken,\n            amountTake,\n            msg.sender,\n            orderInfo.wantToken,\n            amountToFill\n        );\n\n        // update order fill amount\n        orderInfo.filledAmount = (orderInfo.filledAmount).add(amountToFill);\n\n        // emit event\n        emit OrderFilled(\n            orderHash,\n            msg.sender,\n            amountToFill\n        );\n    }\n\n    /**\n    */\n    // solhint-disable-next-line cmf-rules-stable/unammed-returns\n    function userBalanceForToken(address token) external view returns (Balance memory) {\n        return _userBalanceOf(token, msg.sender);\n    }\n\n    /**\n    */\n    function isValidToken(address token) external view returns (bool) {\n        return _isValidToken(token);\n    }\n\n    /**\n    */\n    function getValidTokens() external view returns (address[] memory) {\n        return _validTokensArray;\n    }\n\n    /**\n    */\n    function orderExists(bytes32 orderHash) external view returns (bool) {\n        return _orderExists(orderHash);\n    }\n\n    /**\n    */\n    function orderIsCanceled(bytes32 orderHash) external view returns (bool) {\n        return _orderIsCanceled(orderHash);\n    }\n\n    /**\n    */\n    function orderIsFilled(bytes32 orderHash) external view returns (bool) {\n        return _orderIsFilled(orderHash);\n    }\n\n    /**\n    */\n    function orderIsExpired(bytes32 orderHash) external view returns (bool) {\n        return _orderIsExpired(orderHash);\n    }\n\n    /**\n    */\n    function getOrderFill(bytes32 orderHash) external view returns (uint256) {\n        return _getOrderFill(orderHash);\n    }\n\n    /**\n    */\n    function getOrderInfo(bytes32 orderHash) external view returns (OrderInfo memory) {\n        return _getOrderInfo(orderHash);\n    }\n\n    /**\n    */\n    function _getOrderInfo(bytes32 orderHash) internal view returns (OrderInfo storage) {\n        return _orders[orderHash];\n    }\n\n    // solhint-disable-next-line cmf-rules-stable/unammed-returns\n    function _userBalanceOf(\n        address token, \n        address user\n    ) internal view returns (Balance storage) {\n        return _userBalanceForToken[token][user];\n    }\n\n    /**\n    */\n    function _orderExists(bytes32 orderHash) internal view returns (bool) {\n        return _orders[orderHash].nonce > 0;\n    }\n\n    /**\n    */\n    function _orderIsCanceled(bytes32 orderHash) internal view returns (bool) {\n        return _orders[orderHash].canceled;\n    }\n\n    /**\n    */\n    function _orderIsExpired(bytes32 orderHash) internal view returns (bool) {\n        OrderInfo storage orderInfo = _getOrderInfo(orderHash);\n        return  orderInfo.expirationBlock <= block.number;\n    }\n\n    /**\n    */\n    function _orderIsFilled(bytes32 orderHash) internal view returns (bool) {\n        OrderInfo storage orderInfo = _getOrderInfo(orderHash);\n        return orderInfo.filledAmount == orderInfo.wantAmount;\n    }\n\n    /**\n    */\n    function _isEther(address token) internal pure returns (bool) {\n        return token == address(0);\n    }\n\n    /**\n    */\n    function _isValidToken(address token) internal view returns (bool) {\n        return _validTokens[token];\n    }\n\n    function _getNonce(address user) internal view returns (uint256) {\n        return _userNonce[user];\n    }\n\n    function _calculateExpiration() internal view returns (uint256) {\n        return block.number.add(EXPIRATION_BLOCKS);\n    }\n\n    function _getOrderFill(bytes32 orderHash) internal view returns (uint256) {\n        return _orders[orderHash].filledAmount;\n    }\n\n    function _isOrderCreator(bytes32 orderHash, address sender) internal view returns (bool) {\n        return _orders[orderHash].creator == sender;\n    }\n\n    /**\n    */\n    function _checkBank(\n        address token, \n        uint256 amountNeeded\n    ) internal returns (bool) {\n        // if token is ether, check msg.value\n        if (_isEther(token)) {\n            require(msg.value >= amountNeeded, \"Ether: Not enough balance\");\n\n            uint256 remaining = (msg.value).sub(amountNeeded);\n\n            if (remaining > 0) {\n                // return remaining ether to sender\n                (msg.sender).transfer((msg.value).sub(amountNeeded));\n            }\n\n        // if token is ERC20, check allowance\n        } else {\n            require(\n                IERC20(token).transferFrom(msg.sender, address(this), amountNeeded),\n                \"ERC20 transfer failed\"\n            );\n        }\n        // update balance\n        Balance storage balance = _userBalanceOf(token, msg.sender);\n        balance.available = balance.available.add(amountNeeded);\n\n        emit TokensDeposited(msg.sender, token, amountNeeded);\n\n        return true;\n    }\n\n    /**\n    */\n    function _unlockTokens(\n        address user, \n        address token, \n        uint256 amount\n    ) internal {\n        Balance storage userBalance = _userBalanceOf(token, user);\n        userBalance.locked = (userBalance.locked).sub(amount);\n        userBalance.available = (userBalance.available).add(amount);\n    }\n\n    /**\n    */\n    function _lockTokens(\n        address user, \n        address token, \n        uint256 amount\n    ) internal {\n        Balance storage userBalance = _userBalanceOf(token, user);\n        userBalance.available = (userBalance.available).sub(amount);\n        userBalance.locked = (userBalance.locked).add(amount);\n    }\n\n    /**\n    */\n    function _transferEscrowed(\n        address token,\n        address from,\n        address to,\n        uint256 amount\n    ) internal {\n        Balance storage fromBalance = _userBalanceOf(token, from);\n        Balance storage toBalance = _userBalanceOf(token, to);\n\n        fromBalance.available = (fromBalance.available).sub(amount);\n        toBalance.available = (toBalance.available).add(amount);\n    }\n\n    /**\n    */\n    function _trade(\n        address orderCreator,\n        address haveToken,\n        uint256 haveAmount, \n        address orderTaker,\n        address wantToken,\n        uint256 wantAmount\n    ) internal {\n        // unlock order creator tokens\n        _unlockTokens(orderCreator, haveToken, haveAmount);\n\n        // transfer tokens\n        _transferEscrowed(haveToken, orderCreator, orderTaker, haveAmount);\n        _transferEscrowed(wantToken, orderTaker, orderCreator, wantAmount);\n    }\n\n    /**\n    */\n    function _hashOrder(\n        address haveToken,\n        uint256 haveAmount,\n        address wantToken,\n        uint256 wantAmount,\n        address creator,\n        uint256 nonce,\n        uint256 expirationBlock\n    ) internal pure returns (bytes32) {\n        return keccak256(\n            abi.encodePacked(\n                haveToken,\n                haveAmount,\n                wantToken,\n                wantAmount,\n                creator,\n                nonce,\n                expirationBlock\n            )\n        );\n    }\n\n    modifier onlyTokens(address token) {\n        require(!_isEther(token), \"address cannot be the 0 address\");\n        _;\n    }\n\n    modifier onlyValidTokens(address token) {\n        require(_isValidToken(token) || _isEther(token), \"token is not valid\");\n        _;\n    }\n\n    event TokenAdded(address token);\n\n    event TokenRemoved(address token);\n    \n    event TokensDeposited(address depositer, address token, uint256 amount);\n\n    event TokensWithdrawed(address withdrawer, address token, uint256 amount);\n\n    event OrderCreated(\n        bytes32 orderHash,\n        address haveToken,\n        uint256 haveAmount,\n        address wantToken,\n        uint256 wantAmount,\n        address creator,\n        uint256 nonce,\n        uint256 expirationBlock\n    );\n\n    event OrderCanceled(bytes32 orderHash);\n\n    event OrderFilled(bytes32 orderHash, address filler, uint256 amount);\n}",
  "sourcePath": "/home/madness/Desktop/projects/exchange-final/contracts/Dex.sol",
  "compiler": {
    "name": "solc",
    "version": "0.5.17+commit.d19bba13.Emscripten.clang"
  },
  "schemaVersion": "3.2.2",
  "updatedAt": "2020-07-20T21:44:01.273Z",
  "devdoc": {
    "methods": {
      "depositToken(address,uint256)": {
        "params": {
          "amount": "amount to be deposited",
          "token": "the address of a ERC20 token."
        }
      },
      "isOwner()": {
        "details": "Returns true if the caller is the current owner."
      },
      "owner()": {
        "details": "Returns the address of the current owner."
      },
      "renounceOwnership()": {
        "details": "Leaves the contract without owner. It will not be possible to call `onlyOwner` functions anymore. Can only be called by the current owner.     * NOTE: Renouncing ownership will leave the contract without an owner, thereby removing any functionality that is only available to the owner."
      },
      "transferOwnership(address)": {
        "details": "Transfers ownership of the contract to a new account (`newOwner`). Can only be called by the current owner."
      },
      "withdraw(uint256)": {
        "params": {
          "amount": "of ETH to withdraw"
        }
      },
      "withdrawToken(address,uint256)": {
        "params": {
          "amount": "amount to withdraw",
          "token": "the address of a ERC20 token."
        }
      }
    }
  },
  "userdoc": {
    "methods": {
      "deposit()": {
        "notice": "external function that allows a user to deposit ETH into the contract. it emits a `TokenDeposited` event with address(0) representing ETH"
      },
      "depositToken(address,uint256)": {
        "notice": "function that allows a user to deposit tokens into the contract. it emits a `TokenDeposited`"
      },
      "withdraw(uint256)": {
        "notice": "function that allows a user to withdraw ETH from the contract. it emits a `TokenWithdrawed` event with address(0) representing ETH"
      },
      "withdrawToken(address,uint256)": {
        "notice": "function that allows a user to withdraw tokens from the contract. it emits a `LogWithdrawToken`"
      }
    }
  }
}